:0A18A4000142000141004100000074
:101848001218F97BFF7A1979C7120D25745914AB50
:1018580023AA24A92590001912058990000A740367
:0E18680012058990001A1206C812075180FE60
:1018F9007E007F017DD07C071217DC438E805389DF
:10190900F0758A80758C44C28DD28CD2A9D2AF224F
:100D25008B088A09890AE542B409037FFF227F22DD
:100D35007E001212BFAA06A907E54275F003A42496
:100D450023F8760108A60208A601AB08AA09A90A94
:100D5500C003C002C001E54275F003A42423F88650
:100D65000308E6FA08E6F990001A1206F8E5427556
:100D7500F003A42423F8860308E6FA08E6F99000B0
:100D85000A7401120589E54275F003A42423F88647
:100D95000308E6FA08E6F990001DE4F5F012068569
:100DA5007B007A007900C003C002C001E54275F0FE
:100DB50003A42423F8860308E6FA08E6F990001F41
:100DC5001206F8E54275F003A42423F8860308E625
:100DD500FA08E6F990000BE542120589745904FFFB
:100DE500E54275F003A42423F8860308E6FA08E62D
:100DF500F9900019EF120589E54275F003A4242343
:100E0500F8860308E6FA08E6F9E50A120577E50922
:100E1500FFE54275F003A42423F8860308E6FA08E3
:100E2500E6F9900001EF120589E54275F003A42467
:100E350023F8860308E6FA08E6F990000CE41205A3
:100E450089E54275F003A42423F8860308E6FA0829
:100E5500E6F9900015E4120589E54275F003A4242E
:100E650023F8860308E6FA08E6F9900016E4120569
:100E750089E54275F003A42423F8860308E6FA08F9
:100E8500E6F990000DE4120589E54275F003A42406
:100E950023F8860308E6FA08E6F990000EE4120541
:100EA50089E54275F003A42423F8860308E6FA08C9
:100EB500E6F990000FE4120589E54275F003A424D4
:100EC50023F8860308E6FA08E6F9900010E412050F
:100ED50089E54275F003A42423F8860308E6FA0899
:100EE500E6F9900011E4120589E54275F003A424A2
:100EF50023F8860308E6FA08E6F9900012E41205DD
:100F050089E54275F003A42423F8860308E6FA0868
:100F1500E6F9900013E4120589E54275F003A4246F
:100F250023F8860308E6FA08E6F9900014E41205AA
:100F350089E54275F003A42423F8860308E6FA0838
:100F4500E6F9900018E4120589E54275F003A4243A
:100F550023F8860308E6FA08E6F9900017E4120577
:100F6500890542E54275F003A42423F8860308E6C3
:0C0F7500FA08E6F990000B1204F5FF22C8
:0B19BC00C2AF12116A1207AFD2AF22B7
:1007AF00D200E4FFEFD39542501EEF75F003A4245F
:1007BF0023F8860308E6FA08E6F990000A1204F512
:1007CF00B40102C2000F80DC300003020A69E4FFAB
:1007DF0074592FF8E6FEE54175F003A42423F8863B
:1007EF000308E6FA08E6F98F82758300EE12058991
:1007FF000FBF0ADCE54175F003A42423F886030834
:10080F00E6FA08E6F990000CE543120589E5417513
:10081F00F003A42423F8860308E6FA08E6F990000B
:10082F0015E54E120589E54175F003A42423F886DA
:10083F000308E6FA08E6F9900016E54D120589E57A
:10084F004175F003A42423F8860308E6FA08E6F9B5
:10085F0090000DE544120589E54175F003A42423AA
:10086F00F8860308E6FA08E6F990000EE54512054A
:10087F0089E54175F003A42423F8860308E6FA08F6
:10088F00E6F990000FE546120589E54175F003A4DE
:10089F002423F8860308E6FA08E6F9900010E547E6
:1008AF00120589E54175F003A42423F8860308E6B1
:1008BF00FA08E6F9900011E548120589E54175F04F
:1008CF0003A42423F8860308E6FA08E6F990001239
:1008DF00E549120589E54175F003A42423F8860341
:1008EF0008E6FA08E6F9900013E54A120589E54192
:1008FF0075F003A42423F8860308E6FA08E6F990B6
:10090F000014E54B120589E54175F003A42423F883
:10091F00860308E6FA08E6F9900018E52212058921
:10092F00E54175F003A42423F8860308E6FA08E6E8
:10093F00F9900017E521120589E54175F003A4240C
:10094F0023F8860308E6FA08E6F9900019E54C1239
:10095F000589AF41EFB54202E4FFEF75F003A42420
:10096F0023F8860308E6FA08E6F990000A1204F560
:10097F00640160030F80DDE54175F003A42423F8C3
:10098F00860308E6FA08E6F990000A1204F5B403A4
:10099F000890000A74011205898F41EF75F003A4C6
:1009AF002423F8860308E6FA08E6F990000A740390
:1009BF00120589E54175F003A42423F8860308E6A0
:1009CF00FA08E6F990000C1204F5F54390001512A1
:1009DF0004F5F54E9000161204F5F54D90000D122A
:1009EF0004F5F54490000E1204F5F54590000F1232
:1009FF0004F5F5469000101204F5F547900011121A
:100A0F0004F5F5489000121204F5F5499000131201
:100A1F0004F5F54A9000141204F5F54B90001812E6
:100A2F0004F5F5229000171204F5F5219000191224
:100A3F0004F5F54CE4FFE54175F003A42423F88693
:100A4F000308E6FA08E6F98F827583001204F5FEB3
:0A0A5F0074592FF8A6060FBF0ADC39
:010A6900226A
:100A6A00D201E4FFEFD39542501EEF75F003A424A0
:100A7A0023F8860308E6FA08E6F990000A1204F554
:100A8A00B40102C2010F80DC300103020D24E4FF2D
:100A9A0074592FF8E6FEE54175F003A42423F8867D
:100AAA000308E6FA08E6F98F82758300EE120589D3
:100ABA000FBF0ADCE54175F003A42423F886030876
:100ACA00E6FA08E6F990000CE543120589E5417556
:100ADA00F003A42423F8860308E6FA08E6F990004E
:100AEA0015E54E120589E54175F003A42423F8861D
:100AFA000308E6FA08E6F9900016E54D120589E5BD
:100B0A004175F003A42423F8860308E6FA08E6F9F7
:100B1A0090000DE544120589E54175F003A42423EC
:100B2A00F8860308E6FA08E6F990000EE54512058C
:100B3A0089E54175F003A42423F8860308E6FA0838
:100B4A00E6F990000FE546120589E54175F003A420
:100B5A002423F8860308E6FA08E6F9900010E54728
:100B6A00120589E54175F003A42423F8860308E6F3
:100B7A00FA08E6F9900011E548120589E54175F091
:100B8A0003A42423F8860308E6FA08E6F99000127B
:100B9A00E549120589E54175F003A42423F8860383
:100BAA0008E6FA08E6F9900013E54A120589E541D4
:100BBA0075F003A42423F8860308E6FA08E6F990F8
:100BCA000014E54B120589E54175F003A42423F8C6
:100BDA00860308E6FA08E6F9900018E52212058964
:100BEA00E54175F003A42423F8860308E6FA08E62B
:100BFA00F9900017E521120589E54175F003A4244F
:100C0A0023F8860308E6FA08E6F9900019E54C127B
:100C1A000589AF41EFB54202E4FFEF75F003A42462
:100C2A0023F8860308E6FA08E6F990000A1204F5A2
:100C3A00640160030F80DDE54175F003A42423F805
:100C4A00860308E6FA08E6F990000A1204F5B403E6
:100C5A000890000A74011205898F41EF75F003A408
:100C6A002423F8860308E6FA08E6F990000A7403D2
:100C7A00120589E54175F003A42423F8860308E6E2
:100C8A00FA08E6F990000C1204F5F54390001512E3
:100C9A0004F5F54E9000161204F5F54D90000D126C
:100CAA0004F5F54490000E1204F5F54590000F1274
:100CBA0004F5F5469000101204F5F547900011125C
:100CCA0004F5F5489000121204F5F5499000131244
:100CDA0004F5F54A9000141204F5F54B9000181229
:100CEA0004F5F5229000171204F5F5219000191267
:100CFA0004F5F54CE4FFE54175F003A42423F886D6
:100D0A000308E6FA08E6F98F827583001204F5FEF5
:0A0D1A0074592FF8A6060FBF0ADC7B
:010D240022AC
:10116A00E4FFEFD39542400302121FEF75F003A488
:10117A002423F8860308E6FA08E64A4B70030212AB
:10118A001BEF75F003A42423F8860308E6FA08E6A1
:10119A00F990000A1204F56402707690001D120696
:1011AA000045F0702290001F1206C8E94A4B7017DA
:1011BA00EF75F003A42423F8860308E6FA08E6F993
:1011CA0090000A74018047EF75F003A42423F8867F
:1011DA000308E6FA08E6F990001D120600D3940007
:1011EA00E5F09400402B90001D74FFF5F0120638CC
:1011FA00EF75F003A42423F8860308E6FA08E6F953
:10120A0090001D12060045F0700790000A041205AE
:05121A00890F02116CB8
:01121F0022AC
:1014ED008F828E83E4FCFD7B607AEAF9F8C31206E5
:1014FD00B2400AE5829402E583940050037F0022F6
:10150D00E583C313FEE58213FFE54175F003A424C3
:10151D0023F8860308E6FA08E6F990001DEE8FF031
:10152D00120685E54175F003A42423F8860308E629
:10153D00FA08E6F990000A7402120589E54175F082
:10154D0003A42423F8860308E6FA08E6F990000AB6
:0A155D001204F5640260E57F01222C
:1015CE00C2AF74FF1205221204DCC36480948050F3
:1015DE0036C003C002C001E54175F003A42423F810
:1015EE00860308E6FA08E6F990001F1206F8E541B0
:1015FE0075F003A42423F8860308E6FA08E6F990AA
:10160E00000A7402120589D2AFE54175F003A424D5
:10161E0023F8860308E6FA08E6F990000A1204F5A4
:05162E00640260E522EA
:101220008B0E8A0F8910C2AF74011205221204DCE2
:0A123000D36480948040030212BCD6
:10123A00E4F511E511D395425078E51175F003A450
:10124A002423F8860308E6FA08E6F990000A12044D
:10125A00F56402705990001F1206C8E50E850F83C7
:10126A008510826B7008E965827003EA6583703EB7
:10127A00E51175F003A42423F8860308E6FA08E6C4
:10128A00F990000A74011205897B007A007900C07E
:10129A0003C002C001E51175F003A42423F88603F4
:1012AA0008E6FA08E6F990001F1206F8800405110C
:0212BA00808131
:0312BC00D2AF228C
:0B19C700121937900000E004F080F8D7
:0200000080235B
:02000B00805D16
:02004B00803003
:10002300806B7581580214A82285D043F54E85F064
:100033004D884489458A468B478C488D498E4A8F23
:100043004B858222858321228543D0E54E854DF061
:10005300A844A945AA46AB47AC48AD49AE4AAF4B05
:100063008522828521832285814C75814E12002C45
:100073001219BC12004B854C813285814C75814E1F
:1000830012002C120A6A12004B854C81321219F2AB
:01009300323A
:0218AE00C10275
:10194F00759850438E01438E0475D7CC75D6FF43DF
:05195F008E10D2AC2245
:0819F200309904C299C20222DF
:0819FA002002FD8F99D20222A8
:101964001204DCFF600C1219FA740129F9E43AFA42
:0319740080EE22E0
:081A02002002FD8F99D202229F
:101977001204DCFF600C121A02740129F9E43AFA26
:0319870080EE22CD
:0E19AE001219647FFF1219FA1219FA0219FABF
:0B19D2007FFF1219FA1219FA0219FA2D
:0B19DD007FFF121A02121A02021A0207
:0A19E800759D0775BCE05397DF22E0
:10198A0075BCE900000000E5BC30E4FB53BCEFAFD6
:02199A00BD226C
:10199C0075BCE800000000E5BC30E4FB53BCEFAFC5
:0219AC00BD225A
:0618B000011E01011D00F4
:101937001219E812194F7BFF7A007994120D257B53
:08194700FF7A1379ED020D2572
:10135B006369727320002C002C342C59454C4C4F74
:10136B00570074302E7478743D222053636F72656E
:10137B003A00220066696C6C20002C31302C313025
:10138B002C00475245454E0042524F574E00424C9F
:10139B0041434B007061676520310066696C6C20BE
:1013AB00302C302C3231302C3231302C424C4143EA
:1013BB004B0066696C6C2033302C3130302C333061
:1013CB002C31302C475245454E0066696C6C2035EC
:1013DB00302C3130302C31302C31302C42524F5795
:0213EB004E00B2
:0318B6000112011B
:10178C0090019174031205899001927401120589DC
:10179C00900190740412058990000274031205895B
:1017AC0090000474041205899000067405120589D2
:1017BC00900003740A120589900005740A120589B9
:1017CC00900007740A12058990019374030205892D
:10163300AB08AA09A90A9001921204F5FE75F002FB
:10164300A4F58285F0831204F5FCEE75F002A4295B
:0E165300F9EA35F0FA9000011204F5FDAF043B
:10166100AB05EF75F003A42411FFE435F0FE7C0017
:101671007D141205AB8D13EB75F003A42411FFE467
:0D16810035F0FE7C007D141205AB8D1422A7
:0B173B0075F00AA42405FFE435F0FE61
:10174600AB07AA067C007D641205ABEF2430F515C5
:101756007C007D64AF03AE021205AB7E007F0ACF2C
:10176600CDCFCECCCE1205ABEF2430F516AE02AF00
:10177600037C007D0A1205ABED2430F517E4F5185D
:06178600FB7A0079152238
:101876007BFF7A13795B121964E51312173B121971
:10188600647BFF7A137961121964E51412173B120F
:0E18960019647BFF7A1379631219640219D268
:0F181800AB08AA09A90A9001931204F524FDFF59
:101827008F0E7BFF7A13796D121964AF0E7E00124B
:1018370017461219647BFF7A13797D12196402190E
:01184700D2CE
:101567008F0E8D0F8B107BFF7A13797F121964E52D
:101577000E75F00AA4FFAEF01217461219647BFF2E
:101587007A137961121964E50F75F00AA4FFAEF0BA
:101597001217461219647BFF7A137985121964E5CD
:1015A7001014600F146014240270197BFF7A1379EA
:1015B7008D800E7BFF7A13799380067BFF7A1379F0
:0715C700991219640219D208
:06109D00AB08AA09A90A34
:0610A3008B0E8A0F89107C
:1010A9009001921204F5FFF5119001911204F5FED9
:1010B900EFD39E4069AB0EAA0FA9109001921204BA
:1010C900F5FFE511C39F4006E51194C84010900152
:1010D900911204F5FFE511C39F400302116775F0F2
:1010E90002E511A4F58285F0831204F5B5131CE518
:1010F9001175F002A4AB0E2510F9E50F35F0FA9041
:1011090000011204F5B514037F0122E5112401FF42
:10111900E433FE7C007DC81205AB8D118097AB0EC0
:10112900AA0FA9109001911204F5FFE511C39F5070
:101139002D75F002E511A4F58285F0831204F5B549
:101149001318E51175F002A429F9EA35F0FA9000AF
:10115900011204F5B514037F0122051180C07F0037
:011169002263
:060F81008B0E8A0F89109F
:100F87009001921204F5FFF5119001911204F5FEFC
:100F9700EFD39E5003021033AB0EAA0FA910900196
:100FA700921204F5FFE511C39F4006E51194C8406E
:100FB700109001911204F5FFE511C39F4003021041
:100FC7009AAB0EAA0FA9109001911204F5FF75F0C4
:100FD70002A4F58285F0831204F5FE75F002E5118F
:100FE700A4F58285F0831204F56E702CEF75F0027C
:100FF700A429F9EA35F0FA9000011204F5FDE5118C
:1010070075F002A42510F9E50F35F0FA90000112EA
:1010170004F5B505037F0122E5112401FFE433FE42
:101027007C007DC81205AB8D11020F9FAB0EAA0F76
:10103700A9109001911204F5FFE511C39F50547553
:10104700F002EFA4F58285F0831204F5FF75F00234
:10105700E511A4F58285F0831204F56F70319001D4
:10106700911204F575F002A429F9EA35F0FA900017
:10107700011204F5FDE51175F002A42510F9E50F3D
:1010870035F0FA9000011204F5B505037F0122053A
:051097001180997F00AB
:01109C002231
:0218D1008F0E78
:1018D30012198A8F0F12199CBFFF037F0422EF7026
:1018E300037F0322E50FB4FF037F0222E50F70039A
:0518F3007F0122AF0E91
:0118F80022CD
:100094007F947E011212BFAA06A9077508018A0976
:1000A400890A750B04E51224FE602114606D147036
:1000B400030204D3240370ED2093FD751D01751212
:1000C400027BFF7A13799F1219AE80D9AB08AA0973
:1000D400A90A12178C12163312109DEF600405132F
:1000E40080F67B007A00791E1215CE7BFF7A137995
:1000F400A61219AE7BFF7A1379BD1219AE7BFF7A73
:100104001379D51219AE1218761218187B007A00DA
:10011400791E1212207512030200A9AB08AA09A9BC
:100124000A9001901204F5FF1218D18F0BE50BB45D
:100134000112AB08AA09A90A9001901204F5B402AD
:1001440003750B02E50BB40212AB08AA09A90A90C5
:1001540001901204F5B40103750B01E50BB403120D
:10016400AB08AA09A90A9001901204F5B404037516
:100174000B04E50BB40412AB08AA09A90A90019078
:100184001204F5B40303750B03AB08AA09A90A907A
:100194000190E50B120589AB08AA09A90A900191FF
:1001A4001204F5FF75F002A4F58285F0831204F5BC
:1001B400F50CEF75F002A429F9EA35F0FA90000184
:1001C4001204F5F50D7B007A00791E1215CEAB08EA
:1001D400AA09A90A9001911204F5FE75F002A4F58A
:1001E4008285F0831204F5FCEE75F002A429F9EA85
:1001F40035F0FA9000011204F5FDAF04E4FB12158A
:10020400677B007A00791E121220AB08AA09A90A9A
:100214009001911204F52401FFE433FE7C007DC8B3
:100224001205AB900191ED1205899001901204F52D
:1002340024FE607114700302030914700302036145
:10024400240360030203BAAB08AA09A90A90019126
:100254001204F575F002A4F58285F083E50C12050D
:1002640089E50D14FDAB08AA09A90A9001911204AD
:10027400F575F002A429F9EA35F0FA900001ED12BF
:100284000589E50D60030203BAAB08AA09A90A901F
:1002940001911204F575F002A429F9EA35F0FA90F7
:1002A400000102035DAB08AA09A90A900191120496
:1002B400F575F002A4F58285F083E50C120589E555
:1002C4000D04FDAB08AA09A90A9001911204F57561
:1002D400F002A429F9EA35F0FA900001ED1205893B
:1002E400E50D641460030203BAAB08AA09A90A90D5
:1002F40001911204F575F002A429F9EA35F0FA9097
:1003040000010203B6E50C14FFAB08AA09A90A9080
:1003140001911204F575F002A4F58285F083EF12C1
:100324000589AB08AA09A90A9001911204F575F090
:1003340002A429F9EA35F0FA900001E50D120589C5
:10034400E50C7072AB08AA09A90A9001911204F590
:1003540075F002A4F58285F08374148056E50C04CC
:10036400FFAB08AA09A90A9001911204F575F002DD
:10037400A4F58285F083EF120589AB08AA09A90ABE
:100384009001911204F575F002A429F9EA35F0FA06
:10039400900001E50D120589E50CB41419AB08AA07
:1003A40009A90A9001911204F575F002A4F5828559
:1003B400F083E41205897B007A00791E1215CEAB16
:1003C40008AA09A90A9001911204F5FE75F002A485
:1003D400F58285F0831204F5FCEE75F002A429F988
:1003E400EA35F0FA9000011204F5FDAF047B011226
:1003F4001567AB08AA09A90A9001921204F5FE75C3
:10040400F002A4F58285F0831204F5FCEE75F00287
:10041400A429F9EA35F0FA9000011204F5FDAF04BD
:100424007B021215677B007A00791E1212207F640A
:100434007E001214EDAB08AA09A90A9001911204D6
:10044400F5FF75F002A4F58285F0831204F56513B7
:100454007048EF75F002A429F9EA35F0FA9000012A
:100464001204F565147033AA09A90A9001930412C1
:10047400054412163312109DEF6004051380F67BB9
:10048400007A00791E1215CE1218761218187B0005
:100494007A00791E1212200200A9AB08AA09A90A3F
:1004A400120F81EF60067512040200A9AB08AA09B5
:1004B400A90A9001921204F52401FFE433FE7C00A2
:1004C4007DC81205AB900192ED1205890200A920A6
:0804D40093FD7512020200A95C
:101919006369727320002C002C362C003634393957
:0E192900310042524F574E0032313133300000
:0C18B900011B04011C02011916011A0495
:0B16E70075F00AA42406FFE435F0FEB5
:1016F200AB07AA067C007D641205ABEF243090078D
:10170200D9F07C007D64AF03AE021205AB7E007F90
:101712000ACFCDCFCECCCE1205ABEF2430A3F0AEA4
:1017220002AF037C007D0A1205ABED2430A3F0E486
:09173200A3F07B017A0779D922AA
:10168E008F088D098B0A7BFF7A197919121977E564
:10169E00081216E71219777BFF7A19791F1219773C
:1016AE00E5091216E71219777BFF7A1979211219BB
:1016BE0077E50A14600F146014240270197BFF7A08
:1016CE00197925800E7BFF7A19792B80067BFF7A9C
:0916DE001979311219770219DDA6
:1013ED00E51D60FC7FE87E031214ED7B007A007929
:1013FD001E1215CE7B02AD1AAF1912168E7B007A16
:10140D0000791E121220E51BB4040EE519B41F0558
:10141D00751B0380100519800CE519B41505751B96
:10142D000480021519E51CB4020EE51AB4130575F6
:10143D001C01800F051A800BE51A7005751C0280C2
:10144D0002151A7B007A00791E1215CEE4FBAD1A37
:10145D00AF1912168E7B007A00791E12122080842D
:10146D00021848E493A3F8E493A34003F68001F235
:10147D0008DFF48029E493A3F85407240CC8C33380
:10148D00C4540F4420C8834004F456800146F6DF4F
:10149D00E4800B01020408102040809018A4E47E23
:1014AD00019360BCA3FF543F30E509541FFEE49344
:1014BD00A360010ECF54C025E060A840B8E493A30B
:1014CD00FAE493A3F8E493A3C8C582C8CAC583CA36
:1014DD00F0A3C8C582C8CAC583CADFE9DEE780BEEE
:0118C5000022
:1004DC00BB010689828A83E0225002E722BBFE021E
:0904EC00E32289828A83E4932251
:1004F500BB010CE58229F582E5833AF583E02250BC
:1005050006E92582F8E622BBFE06E92582F8E22205
:0D051500E58229F582E5833AF583E493221F
:10052200BB010989828A83F8E028F022500327F769
:1005320022BBFE05F8E328F3228A838982F8E4933A
:0205420028226D
:10054400BB010FF8E58229F582E5833AF583E028BB
:10055400F0225009C58229F8E58226F622BBFE095D
:10056400C58229F8E22582F222F8EA2583F583E997
:03057400932822A7
:10057700BB010689828A83F0225002F722BBFE0163
:02058700F3225D
:10058900F8BB010DE58229F582E5833AF583E8F0A8
:10059900225006E92582C8F622BBFE05E92582C854
:0205A900F2223C
:1005AB00BC000BBE0029EF8DF084FFADF022E4CC34
:1005BB00F875F008EF2FFFEE33FEEC33FCEE9DECFD
:1005CB00984005FCEE9DFE0FD5F0E9E4CEFD22ED43
:1005DB00F8F5F0EE8420D21CFEADF075F008EF2F8D
:1005EB00FFED33FD4007985006D5F0F222C398FD7E
:0505FB000FD5F0EA221B
:10060000BB0110E58229F582E5833AF583E0F5F038
:10061000A3E0225009E92582F886F008E622BBFE15
:100620000AE92582F8E2F5F008E222E5832AF5835B
:08063000E993F5F0A3E9932220
:10063800BB010DC58229C582C5833AC58302075708
:100648005011C58229F808E5F026F618F5F0E5827C
:1006580036F622BBFE11C58229F808E225F0F5F02E
:10066800F218E23582F222F8E58229F582E5832A3A
:0D067800F58374019325F0F5F0E49338222A
:10068500F8BB0111E58229F582E5833AF583E8F0A7
:10069500E5F0A3F0225009E92582C8F608A6F02264
:0D06A500BBFE09E92582C8F2E5F008F2224B
:1006B200EB9FF5F0EA9E42F0E99D42F0EC6480C8BF
:0606C20064809845F0225F
:1006C800BB010DE58229F582E5833AF58302077FB0
:1006D8005007E92582F802076DBBFE07E92582F875
:1006E800020791E58229F582E5833AF5830207A39B
:1006F800BB0120E58229F582E5833AF583D0F0D065
:10070800E0F8D0E0F9D0E0FAD0E0FBE8C0E0C0F0D3
:100718000207885018E92582F8D083D082D0E0F902
:10072800D0E0FAD0E0FBC082C083020776BBFE1897
:10073800E92582F8D083D082D0E0F9D0E0FAD0E081
:09074800FBC082C08302079A2263
:060751008A838982E47333
:1012BF008E0E8F0F7E077FD18F828E83E0FCA3E08F
:1012CF00FD4C7003FEFF228D828C83A3A3E0FAA353
:1012DF00E0FBC3950FEA950E5008CEECCECFEDCFC5
:1012EF0080D6C3EB950FF511EA950EF510C3E511F6
:1012FF009410E510940050198D828C83E0FBA3E0CD
:10130F008F828E83CBF0A3EBF0ED2404FFE43CFE41
:10131F002274FC2511F51174FF3510F5108D828C98
:10132F0083A3A3F0A3E511F0ED2404FFE43CFEEF4B
:10133F002511FFEE3510FE8F82F583A3A3E50EF086
:0C134F00A3E50FF0EF2404FFE43EFE22B3
:0B18C6004807D10000000000000000F7
:1017DC00EF4E7008FE7F01ED1D70011C9007D1EEDD
:1017EC00F0A3EFF0A3ECF0A3EDF09007D1E0FEA393
:1017FC00E0FFF5828E83E4F0A3F0ED24FCFDEC34E5
:0C180C00FF8F828E83A3A3F0A3EDF022D7
:10075700C5F0F8A3E028F0C5F0F8E582158270022D
:060767001583E038F022CA
:09076D00E6FB08E6FA08E6F922B1
:09077600EBF608EAF608E9F622A8
:09077F00E0FBA3E0FAA3E0F9227B
:09078800EBF0A3EAF0A3E9F02272
:09079100E2FB08E2FA08E2F92299
:09079A00EBF208EAF208E9F22290
:0C07A300E493FB740193FA740293F922B2
:00000001FF
